:100000000C943A000C94D4070C94D4070C94D407A5
:100010000C94D4070C94D4070C94D4070C94D407F4
:100020000C94D4070C94D4070C94D4070C94D407E4
:100030000C94D4070C94D4070C94D4070C94D407D4
:100040000C9424030C94D4070C94D4070C94D40778
:100050000C94D40700600070000FBA0070007B8021
:10006000007B008C000FCA008C00988000980099DB
:10007000000FDB0011241FBECFE5D8E0DEBFCDBFEF
:10008000E4E5F0E040E017C0B591A59135912591E8
:10009000059107FD0CC095918591EF01F92FE82F8F
:1000A00005900D92A217B307D9F7FE0104C01D9267
:1000B000A217B307E1F7E337F40731F70E9484078B
:0800C0000C94AC07F894FFCF8B
:1000C80053797374656D206973206C6F636B656415
:1000D80000666F722032206D696E757465730077E3
:1000E800726F6E672070617373776F72642C007023
:1000F8006C656173652054727920616761696E006F
:1001080057656C636F6D204D6573686F00312D20E6
:100118004C656473204F4E00322D204C656473206B
:100128004F464600506C6561736520456E74657274
:0A0138000050617373776F7264006A
:100142002F923F924F925F926F927F928F929F92E5
:10015200AF92BF92CF92DF92EF92FF920F931F93D3
:10016200CF93DF93CDB7DEB728970FB6F894DEBFF3
:100172000FBECDBF29833A834B835C836D837E831D
:10018200382E292EA0E00E94A00709F081C080E34A
:100192000E941B06CBC02F813885492D582D672D13
:1001A200762D852D942D01E00E94F106822E932E4C
:1001B20048875F83B62FA72FF82FE92F02E00E940E
:1001C200F106A22EB32EC42ED52EE62EF72E082F20
:1001D200192F282D392D48855F816B2F7A2F8F2F6C
:1001E2009E2F0E94C10728873F83942E852E762E4C
:1001F200672E582E492E0F2EFAE0AF2EF02DB12C7D
:10020200C12CD12CE12CF12C00E010E029813A81A3
:100212004B815C816D817E81832D922D0E9492079C
:10022200A22EB32EC42ED52EE62EF72E082F192F6E
:1002320028853F81492D582D672D762D852D942DAA
:100242000E94C1072F833887942E852E762E672E23
:10025200582E492E0F2EFAE0AF2EF02DB12CC12CC4
:10026200D12CE12CF12C00E010E029813A814B8164
:100272005C816D817E81832D922D0E94940729835A
:100282003A834B835C836D837E83382E292E09C08B
:1002920081E01886912C812C712C612C512C412CDF
:1002A2008F8329813A814B815C816D817E81832D8F
:1002B200922DA0E00E94A00709F06DCF2BC00F2E57
:1002C200FAE0AF2EF02DB12CC12CD12CE12CF12C67
:1002D20000E010E02F813885492D582D672D762DAD
:1002E200852D942D0E94920780E3820F0E941B06A7
:1002F2002F813885492D582D672D762D852D942DEA
:100302000E9494072F833887942E852E762E672E8F
:10031200582E492E2F813885492D582D672D762D3F
:10032200852D942DA1E00E94A00749F628960FB6CC
:10033200F894DEBF0FBECDBFDF91CF911F910F9119
:10034200FF90EF90DF90CF90BF90AF909F908F90F3
:0E0352007F906F905F904F903F902F90089596
:10036000AF92BF92CF92DF92EF92FF920F931F93C3
:10037000CF93DF93CDB7DEB769970FB6F894DEBFA2
:100380000FBECDBF198281E08A8382E08B8383E038
:100390008C8384E08D8385E08E8386E08F8387E085
:1003A0008887B12C5BC0CB2CD12CE5E0F0E0EC0FC2
:1003B000FD1FEC0DFD1DA08040E06A2D81E00E9434
:1003C000B40210E042C081E0898FE12EF12CE1E01F
:1003D000F0E0EC0FFD1FEE0DFF1D0081AE01475E4A
:1003E0005F4F602F80E00E94B605898D81112CC07F
:1003F0008FE59AEE0197F1F700C00000898D811119
:1004000023C007C0AE01475E5F4F602F80E00E94AF
:10041000B605898D8823B1F380E1E0E6F0E0DE01E6
:10042000199601900D928A95E1F7EE0CFF1CEE0CE7
:10043000FF1C81E090E08C0F9D1FE80EF91EF70174
:10044000EC0DFD1D80850FC01F5F143008F4BBCF7D
:1004500041E06A2D81E00E94B402B39493E09B15C1
:1004600008F0A1CF81E069960FB6F894DEBF0FBE09
:10047000CDBFDF91CF911F910F91FF90EF90DF9053
:08048000CF90BF90AF900895EA
:100488004F3FA1F5813089F028F08230C9F08330E0
:1004980011F108952AB381E090E002C0880F991FF6
:1004A8006A95E2F7822B8ABB089527B381E090E032
:1004B80002C0880F991F6A95E2F7822B87BB0895BF
:1004C80024B381E090E002C0880F991F6A95E2F793
:1004D800822B84BB089521B381E090E002C0880F8D
:1004E800991F6A95E2F7822B81BB0895411137C0A5
:1004F800813091F028F08230D9F0833029F10895C5
:100508002AB381E090E002C0880F991F6A95E2F74C
:10051800809582238ABB089527B381E090E002C0CA
:10052800880F991F6A95E2F78095822387BB089503
:1005380024B381E090E002C0880F991F6A95E2F722
:100548008095822384BB089521B381E090E002C0A6
:10055800880F991F6A95E2F78095822381BB0895D9
:100568004130A1F5813089F028F08230C9F083301C
:1005780011F108952BB381E090E002C0880F991F14
:100588006A95E2F7822B8BBB089528B381E090E04F
:1005980002C0880F991F6A95E2F7822B88BB0895DD
:1005A80025B381E090E002C0880F991F6A95E2F7B1
:1005B800822B85BB089522B381E090E002C0880FAA
:1005C800991F6A95E2F7822B82BB0895411137C0C3
:1005D800813091F028F08230D9F0833029F10895E4
:1005E8002BB381E090E002C0880F991F6A95E2F76B
:1005F800809582238BBB089528B381E090E002C0E8
:10060800880F991F6A95E2F78095822388BB089521
:1006180025B381E090E002C0880F991F6A95E2F740
:100628008095822385BB089522B381E090E002C0C3
:10063800880F991F6A95E2F78095822382BB0895F7
:100648001F920F920FB60F9211242F933F934F933F
:100658005F936F937F938F939F93AF93BF93EF9322
:10066800FF9380919700811117C0E0919000F0915D
:10067800910024B185B190E0982F8827822B91832F
:10068800808310929400E0918E00F0918F0009957C
:1006980086B1877F86B932C0E0919000F0919100D1
:1006A80024B185B190E0982F8827822B918380838D
:1006B800809195008F5F80939500909196008913A3
:1006C8000BC010929400E0918E00F0918F00099574
:1006D80086B1877F86B912C087B1807E87B997B106
:1006E80080919500E0918C00F0918D00E80FF11D4C
:1006F8008081892B87B986B1806486B9FF91EF9193
:10070800BF91AF919F918F917F916F915F914F9121
:0E0718003F912F910F900FBE0F901F901895DC
:10072600CF92DF92EF92FF920F931F93CF93DF93B7
:1007360000D0CDB7DEB77C018B011A821982FC018D
:10074600218188EE93E0289F6001299FD00C112417
:10075600BE016F5F7F4F80810E941405F701828181
:10076600811112C029813A81D6010E947507DC01E8
:10077600CB01072E7AE0B695A795979587957A953A
:10078600D1F7702D9C010FC0813059F429813A812F
:10079600D6010E947507BB27A92F982F872F9C018A
:1007A60002C020E030E0ADECBCEC0E9475079695E7
:1007B60087959695879596958795F80180830F90EE
:1007C6000F90DF91CF911F910F91FF90EF90DF90E7
:0407D600CF90089523
:1007DA0088249924F401E401B0E49F93AA279A1586
:1007EA008B049C04ED05FE05CF05D007A10798F4FC
:1007FA00AD2FDC2FCF2FFE2FE92D982C892E982F85
:10080A00872F762F652F542F432F322F2227B85048
:10081A0031F7BF9127C01B2EBF91BB27220F331F71
:10082A00441F551F661F771F881F991F881C991C14
:10083A00EE1FFF1FCC1FDD1FAA1FBB1F8A149B04BC
:10084A00EC05FD05CE05DF05A007B10748F08A18BB
:10085A009B08EC09FD09CE09DF09A00BB10B216049
:10086A001A94E1F62EF49401AF01BE01CD01000CF9
:02087A000895DF
:10087C00CF930E94B70768E071E080E00E94D60633
:10088C002FEB84ED91E0215080409040E1F700C0C7
:10089C0000000E94B70765E171E080E00E94D60677
:1008AC0061E082E00E94750660E271E080E00E94E7
:1008BC00D606C1E003C00E94B001C82FC130D9F3E5
:1008CC008FEC8C0F823010F0C336A9F7C336F1F0E1
:1008DC006091890070918A0080918B000E94CA07F8
:1008EC00C13349F46091890070918A0080918B002A
:1008FC000E945707DECFC233E1F6609189007091F8
:10090C008A0080918B000E946607D3CFCF91089507
:10091C002FE788E391E0215080409040E1F700C040
:10092C0000006FEF83E00E9437074FEF65E082E035
:10093C000E9444024FEF66E082E00E9444024FEFB7
:10094C0067E082E00E94440282E00E9448068FEC3D
:10095C0097E00197F1F700C0000088E30E94480679
:10096C008FEC97E00197F1F700C000008CE00E943B
:10097C0048068FEC97E00197F1F700C000000E9449
:10098C00B70786E00E9448068FEC97E00197F1F7D5
:06099C0000C000000895F8
:1009A200CF93DF9380919800813071F46CE271E013
:1009B20080E00E94D60661E082E00E94750669E34B
:1009C20071E080E00E94D606D0E014C00E94B0011F
:1009D200C82F01C0C1E0C130C9F3D11102C00E94C9
:1009E200B7078AE20E941B06ED2FF0E0E059FF4FA5
:1009F200C083DF5FDB3070F320E00DC0822F90E018
:100A0200FC01E558FF4F3081FC01E059FF4F808126
:100A1200381305C02F5F2B3088F381E001C080E0DE
:060A2200DF91CF91089561
:100A28006115710591F19091940091112EC091E09A
:100A38009093940097B1907E97B997B1892B87B915
:100A480086B1806486B980E090E0DC0103C001963D
:100A5800A11DB11D349906C0803523EC9207A1056C
:100A6800B105A8F38035934CA105B10561F086B1B5
:100A7800806186B924B185B190E0982F8827822BB0
:0C0A8800FB01918380831092940008957C
:100A9400809198008F5F809398008430F0F081E01B
:100AA400809398000E94B70768EC70E080E00E9491
:100AB400D60661E082E00E94750669ED70E080E090
:100AC4000E94D6062FEF3CE281E391E021503040B2
:100AD40080409040D9F700C000000E94B70767EE3D
:100AE40070E080E00E94D60661E082E00E94750614
:0C0AF40067EF70E080E00E94D6060895D5
:100B0000CF93DF9362E970E086E890E00E94930360
:100B10000E94B7078091920090919300282F392F5F
:100B200040E050E060E070E080E090E00E94A100D2
:100B300080919200909193008A31910520F480E099
:100B40000E94D6070AC04A97049720F48FE70E94B4
:100B5000D60703C08FEF0E94D6078FE493EC01976E
:0C0B6000F1F700C00000DF91CF91089574
:100B6C00813089F028F08230C9F0833011F108957A
:100B7C0089B390E002C0959587956A95E2F78170EC
:100B8C00FA018083089586B390E002C0959587950D
:100B9C006A95E2F78170FA018083089583B390E03F
:100BAC0002C0959587956A95E2F78170FA0180836A
:100BBC00089580B390E002C0959587956A95E2F709
:080BCC008170FA018083089595
:100BD40040E060E080E00E94440240E061E080E0A8
:100BE4000E94440240E062E080E00E94440240E04F
:100BF40063E080E00E9444026FE080E00E944707C7
:100C04004FEF64E081E00E9444024FEF65E081E031
:100C14000E9444024FEF66E081E00E9444024FEFDD
:100C240067E081E00E9444026FEF81E00E94470781
:020C3400089521
:100C3600CF93C82F6FEF83E00E9437074FEF65E031
:100C460082E00E9444024FEF66E082E00E94440286
:100C56004FEF67E082E00E9444026C2F83E00E941F
:100C6600470741E065E082E00E94B40240E066E0AA
:100C760082E00E94B4020E940A078FEC97E0019777
:0A0C8600F1F700C00000CF910895BF
:100C9000CF93C82F6FEF83E00E9437074FEF65E0D7
:100CA00082E00E9444024FEF66E082E00E9444022C
:100CB0004FEF67E082E00E9444026C2F83E00E94C5
:100CC000470740E065E082E00E94B40240E066E051
:100CD00082E00E94B4020E940A078FEC97E001971D
:0A0CE000F1F700C00000CF91089565
:100CEA009FEF980F923070F4613170F4662371F0BF
:100CFA00813019F48FE7860F0CC0823049F48FEBEC
:100D0A00860F07C080E805C080E803C080E801C0FC
:100D1A0080E00E9448068FEC97E00197F1F700C047
:040D2A000000089528
:100D2E008FB780688FBF12BE4FEF63E081E00E94E5
:100D3E00440283B7806483BF83B7886083BF83B761
:100D4E008F7E83BF83B7806283BF1CBE83B78E7FC7
:100D5E0083BF83B7826083BF83B78B7F83BF0895C2
:100D6E000E948E040E94EA050E9421070E94D0076D
:100D7E000E9497064FEF60E082E00E94440241E03D
:100D8E0060E082E00E94B4024FEF61E082E00E94D8
:0E0D9E00440240E061E082E00E94B402089549
:100DAC00CF92DF92EF92CF936B01E82EC0E003C09D
:100DBC000E941B06CF5FAE2DC6018C0F911DA11D8D
:100DCC00FC018491A7FD80818111F2CFCF91EF902E
:060DDC00DF90CF900895A6
:100DE2000F93083090F0982F872F762F652F542F6E
:100DF200432F322F22270850F4CF220F331F441FD4
:100E0200551F661F771F881F991F0A95B2F70F910A
:020E1200089541
:100E140041E067E082E00E94B4028FEC97E0019722
:100E2400F1F700C0000040E067E082E00E94B402F5
:0E0E34008FEC97E00197F1F700C000000895E1
:100E420087B1806487B987B18F7787B987B18F7D82
:100E520087B986B1887F86B986B1836086B986B143
:0C0E6200806886B986B1877F86B9089544
:100E6E00813041F028F0823039F0833039F0089526
:100E7E006ABB089567BB089564BB089561BB08956E
:100E8E00813041F028F0823039F0833039F0089506
:100E9E006BBB089568BB089565BB089562BB08954A
:100EAE00962F813031F441E0672F892F0E94B402D2
:0E0EBE00089540E0672F892F0E94B402089526
:100ECC00962F813031F440E0672F892F0E94B402B5
:0E0EDC00089541E0672F892F0E94B402089507
:100EEA00A29FB001B39FC001A39F700D811D112461
:0E0EFA00911DB29F700D811D1124911D089550
:100F08000E94B7060E94D104811103C00E944A05BD
:0C0F1800F9CF0E943E040E948005FDCF2E
:100F2400689401C0E8948F929F92CF93DF930E94BC
:0C0F3400ED03DF91CF919F908F90089506
:100F40000024A7FD00942A173005400550056005D0
:080F500070058005900508956D
:100F5800EC010E94DB070E94DA07CE010E94DC0741
:060F6800CE010E94D80733
:100F6E0081E00E9448068FE19EE40197F1F700C0F0
:040F7E0000000895D2
:100F82002A0D3B1D4C1D5D1D6E1D7F1D801F911F77
:020F92000895C0
:0C0F9400862F672F4FEF0E944402089543
:080FA00086B1806886B908954E
:040FA8000C940000A5
:040FAC008CBF089559
:040FB0000E94620039
:020FB40008959E
:020FB60008959C
:020FB80008959A
:100FBA003738392F3435362A3132332D63303D2BC9
:0B0FCA003935313735333634383230DA
:030FD50004050010
:030FD8000204010F
:010FDB000114
:00000001FF
